{
  "_format": "hh-sol-artifact-1",
  "contractName": "ReExoBits",
  "sourceName": "contracts/ReExoBits.sol",
  "abi": [
    {
      "inputs": [],
      "stateMutability": "nonpayable",
      "type": "constructor"
    },
    {
      "anonymous": false,
      "inputs": [
        {
          "indexed": true,
          "internalType": "address",
          "name": "owner",
          "type": "address"
        },
        {
          "indexed": true,
          "internalType": "address",
          "name": "approved",
          "type": "address"
        },
        {
          "indexed": true,
          "internalType": "uint256",
          "name": "tokenId",
          "type": "uint256"
        }
      ],
      "name": "Approval",
      "type": "event"
    },
    {
      "anonymous": false,
      "inputs": [
        {
          "indexed": true,
          "internalType": "address",
          "name": "owner",
          "type": "address"
        },
        {
          "indexed": true,
          "internalType": "address",
          "name": "operator",
          "type": "address"
        },
        {
          "indexed": false,
          "internalType": "bool",
          "name": "approved",
          "type": "bool"
        }
      ],
      "name": "ApprovalForAll",
      "type": "event"
    },
    {
      "anonymous": false,
      "inputs": [
        {
          "indexed": true,
          "internalType": "address",
          "name": "previousOwner",
          "type": "address"
        },
        {
          "indexed": true,
          "internalType": "address",
          "name": "newOwner",
          "type": "address"
        }
      ],
      "name": "OwnershipTransferred",
      "type": "event"
    },
    {
      "anonymous": false,
      "inputs": [
        {
          "indexed": true,
          "internalType": "address",
          "name": "from",
          "type": "address"
        },
        {
          "indexed": true,
          "internalType": "address",
          "name": "to",
          "type": "address"
        },
        {
          "indexed": true,
          "internalType": "uint256",
          "name": "tokenId",
          "type": "uint256"
        }
      ],
      "name": "Transfer",
      "type": "event"
    },
    {
      "inputs": [
        {
          "internalType": "string",
          "name": "_uri",
          "type": "string"
        }
      ],
      "name": "CustomMint",
      "outputs": [
        {
          "internalType": "uint256",
          "name": "",
          "type": "uint256"
        }
      ],
      "stateMutability": "payable",
      "type": "function"
    },
    {
      "inputs": [
        {
          "internalType": "string",
          "name": "",
          "type": "string"
        }
      ],
      "name": "_uriId",
      "outputs": [
        {
          "internalType": "uint256",
          "name": "",
          "type": "uint256"
        }
      ],
      "stateMutability": "view",
      "type": "function"
    },
    {
      "inputs": [
        {
          "internalType": "address",
          "name": "to",
          "type": "address"
        },
        {
          "internalType": "uint256",
          "name": "tokenId",
          "type": "uint256"
        }
      ],
      "name": "approve",
      "outputs": [],
      "stateMutability": "nonpayable",
      "type": "function"
    },
    {
      "inputs": [
        {
          "internalType": "address",
          "name": "owner",
          "type": "address"
        }
      ],
      "name": "balanceOf",
      "outputs": [
        {
          "internalType": "uint256",
          "name": "",
          "type": "uint256"
        }
      ],
      "stateMutability": "view",
      "type": "function"
    },
    {
      "inputs": [
        {
          "internalType": "uint256",
          "name": "tokenId",
          "type": "uint256"
        }
      ],
      "name": "getApproved",
      "outputs": [
        {
          "internalType": "address",
          "name": "",
          "type": "address"
        }
      ],
      "stateMutability": "view",
      "type": "function"
    },
    {
      "inputs": [
        {
          "internalType": "address",
          "name": "owner",
          "type": "address"
        },
        {
          "internalType": "address",
          "name": "operator",
          "type": "address"
        }
      ],
      "name": "isApprovedForAll",
      "outputs": [
        {
          "internalType": "bool",
          "name": "",
          "type": "bool"
        }
      ],
      "stateMutability": "view",
      "type": "function"
    },
    {
      "inputs": [],
      "name": "name",
      "outputs": [
        {
          "internalType": "string",
          "name": "",
          "type": "string"
        }
      ],
      "stateMutability": "view",
      "type": "function"
    },
    {
      "inputs": [],
      "name": "owner",
      "outputs": [
        {
          "internalType": "address",
          "name": "",
          "type": "address"
        }
      ],
      "stateMutability": "view",
      "type": "function"
    },
    {
      "inputs": [
        {
          "internalType": "uint256",
          "name": "tokenId",
          "type": "uint256"
        }
      ],
      "name": "ownerOf",
      "outputs": [
        {
          "internalType": "address",
          "name": "",
          "type": "address"
        }
      ],
      "stateMutability": "view",
      "type": "function"
    },
    {
      "inputs": [],
      "name": "renounceOwnership",
      "outputs": [],
      "stateMutability": "nonpayable",
      "type": "function"
    },
    {
      "inputs": [
        {
          "internalType": "address",
          "name": "from",
          "type": "address"
        },
        {
          "internalType": "address",
          "name": "to",
          "type": "address"
        },
        {
          "internalType": "uint256",
          "name": "tokenId",
          "type": "uint256"
        }
      ],
      "name": "safeTransferFrom",
      "outputs": [],
      "stateMutability": "nonpayable",
      "type": "function"
    },
    {
      "inputs": [
        {
          "internalType": "address",
          "name": "from",
          "type": "address"
        },
        {
          "internalType": "address",
          "name": "to",
          "type": "address"
        },
        {
          "internalType": "uint256",
          "name": "tokenId",
          "type": "uint256"
        },
        {
          "internalType": "bytes",
          "name": "_data",
          "type": "bytes"
        }
      ],
      "name": "safeTransferFrom",
      "outputs": [],
      "stateMutability": "nonpayable",
      "type": "function"
    },
    {
      "inputs": [
        {
          "internalType": "address",
          "name": "operator",
          "type": "address"
        },
        {
          "internalType": "bool",
          "name": "approved",
          "type": "bool"
        }
      ],
      "name": "setApprovalForAll",
      "outputs": [],
      "stateMutability": "nonpayable",
      "type": "function"
    },
    {
      "inputs": [
        {
          "internalType": "bytes4",
          "name": "interfaceId",
          "type": "bytes4"
        }
      ],
      "name": "supportsInterface",
      "outputs": [
        {
          "internalType": "bool",
          "name": "",
          "type": "bool"
        }
      ],
      "stateMutability": "view",
      "type": "function"
    },
    {
      "inputs": [],
      "name": "symbol",
      "outputs": [
        {
          "internalType": "string",
          "name": "",
          "type": "string"
        }
      ],
      "stateMutability": "view",
      "type": "function"
    },
    {
      "inputs": [
        {
          "internalType": "uint256",
          "name": "index",
          "type": "uint256"
        }
      ],
      "name": "tokenByIndex",
      "outputs": [
        {
          "internalType": "uint256",
          "name": "",
          "type": "uint256"
        }
      ],
      "stateMutability": "view",
      "type": "function"
    },
    {
      "inputs": [
        {
          "internalType": "string",
          "name": "_uri",
          "type": "string"
        }
      ],
      "name": "tokenByUri",
      "outputs": [
        {
          "internalType": "uint256",
          "name": "",
          "type": "uint256"
        }
      ],
      "stateMutability": "view",
      "type": "function"
    },
    {
      "inputs": [
        {
          "internalType": "address",
          "name": "owner",
          "type": "address"
        },
        {
          "internalType": "uint256",
          "name": "index",
          "type": "uint256"
        }
      ],
      "name": "tokenOfOwnerByIndex",
      "outputs": [
        {
          "internalType": "uint256",
          "name": "",
          "type": "uint256"
        }
      ],
      "stateMutability": "view",
      "type": "function"
    },
    {
      "inputs": [
        {
          "internalType": "uint256",
          "name": "tokenId",
          "type": "uint256"
        }
      ],
      "name": "tokenURI",
      "outputs": [
        {
          "internalType": "string",
          "name": "",
          "type": "string"
        }
      ],
      "stateMutability": "view",
      "type": "function"
    },
    {
      "inputs": [
        {
          "internalType": "address",
          "name": "_owner",
          "type": "address"
        }
      ],
      "name": "tokensOfOwner",
      "outputs": [
        {
          "internalType": "uint256[]",
          "name": "ownerTokens",
          "type": "uint256[]"
        }
      ],
      "stateMutability": "view",
      "type": "function"
    },
    {
      "inputs": [],
      "name": "totalSupply",
      "outputs": [
        {
          "internalType": "uint256",
          "name": "",
          "type": "uint256"
        }
      ],
      "stateMutability": "view",
      "type": "function"
    },
    {
      "inputs": [
        {
          "internalType": "address",
          "name": "from",
          "type": "address"
        },
        {
          "internalType": "address",
          "name": "to",
          "type": "address"
        },
        {
          "internalType": "uint256",
          "name": "tokenId",
          "type": "uint256"
        }
      ],
      "name": "transferFrom",
      "outputs": [],
      "stateMutability": "nonpayable",
      "type": "function"
    },
    {
      "inputs": [
        {
          "internalType": "address",
          "name": "newOwner",
          "type": "address"
        }
      ],
      "name": "transferOwnership",
      "outputs": [],
      "stateMutability": "nonpayable",
      "type": "function"
    }
  ],
  "bytecode": "0x60806040523480156200001157600080fd5b506040518060400160405280600981526020017f526545786f4269747300000000000000000000000000000000000000000000008152506040518060400160405280600481526020017f584f424400000000000000000000000000000000000000000000000000000000815250816000908051906020019062000096929190620001a6565b508060019080519060200190620000af929190620001a6565b505050620000d2620000c6620000d860201b60201c565b620000e060201b60201c565b620002bb565b600033905090565b6000600b60009054906101000a900473ffffffffffffffffffffffffffffffffffffffff16905081600b60006101000a81548173ffffffffffffffffffffffffffffffffffffffff021916908373ffffffffffffffffffffffffffffffffffffffff1602179055508173ffffffffffffffffffffffffffffffffffffffff168173ffffffffffffffffffffffffffffffffffffffff167f8be0079c531659141344cd1fd0a4f28419497f9722a3daafe3b4186f6b6457e060405160405180910390a35050565b828054620001b49062000256565b90600052602060002090601f016020900481019282620001d8576000855562000224565b82601f10620001f357805160ff191683800117855562000224565b8280016001018555821562000224579182015b828111156200022357825182559160200191906001019062000206565b5b50905062000233919062000237565b5090565b5b808211156200025257600081600090555060010162000238565b5090565b600060028204905060018216806200026f57607f821691505b602082108114156200028657620002856200028c565b5b50919050565b7f4e487b7100000000000000000000000000000000000000000000000000000000600052602260045260246000fd5b613e0c80620002cb6000396000f3fe6080604052600436106101405760003560e01c806370a08231116100b6578063a22cb4651161006f578063a22cb4651461049b578063b88d4fde146104c4578063c87b56dd146104ed578063e985e9c51461052a578063ec35c79914610567578063f2fde38b146105a457610140565b806370a0823114610384578063715018a6146103c15780638462151c146103d8578063879e9039146104155780638da5cb5b1461044557806395d89b411461047057610140565b806323b872dd1161010857806323b872dd1461023e5780632f745c59146102675780633ef987cd146102a457806342842e0e146102e15780634f6ccce71461030a5780636352211e1461034757610140565b806301ffc9a71461014557806306fdde0314610182578063081812fc146101ad578063095ea7b3146101ea57806318160ddd14610213575b600080fd5b34801561015157600080fd5b5061016c60048036038101906101679190612af3565b6105cd565b60405161017991906130a7565b60405180910390f35b34801561018e57600080fd5b506101976105df565b6040516101a491906130c2565b60405180910390f35b3480156101b957600080fd5b506101d460048036038101906101cf9190612b86565b610671565b6040516101e1919061301e565b60405180910390f35b3480156101f657600080fd5b50610211600480360381019061020c9190612ab7565b6106f6565b005b34801561021f57600080fd5b5061022861080e565b6040516102359190613384565b60405180910390f35b34801561024a57600080fd5b50610265600480360381019061026091906129b1565b61081b565b005b34801561027357600080fd5b5061028e60048036038101906102899190612ab7565b61087b565b60405161029b9190613384565b60405180910390f35b3480156102b057600080fd5b506102cb60048036038101906102c69190612b45565b610920565b6040516102d89190613384565b60405180910390f35b3480156102ed57600080fd5b50610308600480360381019061030391906129b1565b61094e565b005b34801561031657600080fd5b50610331600480360381019061032c9190612b86565b61096e565b60405161033e9190613384565b60405180910390f35b34801561035357600080fd5b5061036e60048036038101906103699190612b86565b610a05565b60405161037b919061301e565b60405180910390f35b34801561039057600080fd5b506103ab60048036038101906103a6919061294c565b610ab7565b6040516103b89190613384565b60405180910390f35b3480156103cd57600080fd5b506103d6610b6f565b005b3480156103e457600080fd5b506103ff60048036038101906103fa919061294c565b610bf7565b60405161040c9190613085565b60405180910390f35b61042f600480360381019061042a9190612b45565b610dc7565b60405161043c9190613384565b60405180910390f35b34801561045157600080fd5b5061045a610e81565b604051610467919061301e565b60405180910390f35b34801561047c57600080fd5b50610485610eab565b60405161049291906130c2565b60405180910390f35b3480156104a757600080fd5b506104c260048036038101906104bd9190612a7b565b610f3d565b005b3480156104d057600080fd5b506104eb60048036038101906104e69190612a00565b610f53565b005b3480156104f957600080fd5b50610514600480360381019061050f9190612b86565b610fb5565b60405161052191906130c2565b60405180910390f35b34801561053657600080fd5b50610551600480360381019061054c9190612975565b610fc7565b60405161055e91906130a7565b60405180910390f35b34801561057357600080fd5b5061058e60048036038101906105899190612b45565b61105b565b60405161059b9190613384565b60405180910390f35b3480156105b057600080fd5b506105cb60048036038101906105c6919061294c565b611083565b005b60006105d88261117b565b9050919050565b6060600080546105ee90613613565b80601f016020809104026020016040519081016040528092919081815260200182805461061a90613613565b80156106675780601f1061063c57610100808354040283529160200191610667565b820191906000526020600020905b81548152906001019060200180831161064a57829003601f168201915b5050505050905090565b600061067c826111f5565b6106bb576040517f08c379a00000000000000000000000000000000000000000000000000000000081526004016106b2906132c4565b60405180910390fd5b6004600083815260200190815260200160002060009054906101000a900473ffffffffffffffffffffffffffffffffffffffff169050919050565b600061070182610a05565b90508073ffffffffffffffffffffffffffffffffffffffff168373ffffffffffffffffffffffffffffffffffffffff161415610772576040517f08c379a000000000000000000000000000000000000000000000000000000000815260040161076990613324565b60405180910390fd5b8073ffffffffffffffffffffffffffffffffffffffff16610791611261565b73ffffffffffffffffffffffffffffffffffffffff1614806107c057506107bf816107ba611261565b610fc7565b5b6107ff576040517f08c379a00000000000000000000000000000000000000000000000000000000081526004016107f690613204565b60405180910390fd5b6108098383611269565b505050565b6000600880549050905090565b61082c610826611261565b82611322565b61086b576040517f08c379a000000000000000000000000000000000000000000000000000000000815260040161086290613344565b60405180910390fd5b610876838383611400565b505050565b600061088683610ab7565b82106108c7576040517f08c379a00000000000000000000000000000000000000000000000000000000081526004016108be90613104565b60405180910390fd5b600660008473ffffffffffffffffffffffffffffffffffffffff1673ffffffffffffffffffffffffffffffffffffffff168152602001908152602001600020600083815260200190815260200160002054905092915050565b600d818051602081018201805184825260208301602085012081835280955050505050506000915090505481565b61096983838360405180602001604052806000815250610f53565b505050565b600061097861080e565b82106109b9576040517f08c379a00000000000000000000000000000000000000000000000000000000081526004016109b090613364565b60405180910390fd5b600882815481106109f3577f4e487b7100000000000000000000000000000000000000000000000000000000600052603260045260246000fd5b90600052602060002001549050919050565b6000806002600084815260200190815260200160002060009054906101000a900473ffffffffffffffffffffffffffffffffffffffff169050600073ffffffffffffffffffffffffffffffffffffffff168173ffffffffffffffffffffffffffffffffffffffff161415610aae576040517f08c379a0000000000000000000000000000000000000000000000000000000008152600401610aa590613244565b60405180910390fd5b80915050919050565b60008073ffffffffffffffffffffffffffffffffffffffff168273ffffffffffffffffffffffffffffffffffffffff161415610b28576040517f08c379a0000000000000000000000000000000000000000000000000000000008152600401610b1f90613224565b60405180910390fd5b600360008373ffffffffffffffffffffffffffffffffffffffff1673ffffffffffffffffffffffffffffffffffffffff168152602001908152602001600020549050919050565b610b77611261565b73ffffffffffffffffffffffffffffffffffffffff16610b95610e81565b73ffffffffffffffffffffffffffffffffffffffff1614610beb576040517f08c379a0000000000000000000000000000000000000000000000000000000008152600401610be2906132e4565b60405180910390fd5b610bf56000611667565b565b60606000610c0483610ab7565b90506000811415610c8757600067ffffffffffffffff811115610c50577f4e487b7100000000000000000000000000000000000000000000000000000000600052604160045260246000fd5b604051908082528060200260200182016040528015610c7e5781602001602082028036833780820191505090505b50915050610dc2565b60008167ffffffffffffffff811115610cc9577f4e487b7100000000000000000000000000000000000000000000000000000000600052604160045260246000fd5b604051908082528060200260200182016040528015610cf75781602001602082028036833780820191505090505b5090506000610d0461080e565b9050600080600190505b828111610db9578673ffffffffffffffffffffffffffffffffffffffff16610d3582610a05565b73ffffffffffffffffffffffffffffffffffffffff161415610da65780848381518110610d8b577f4e487b7100000000000000000000000000000000000000000000000000000000600052603260045260246000fd5b6020026020010181815250508180610da290613676565b9250505b8080610db190613676565b915050610d0e565b83955050505050505b919050565b600080600d83604051610dda9190612fe3565b90815260200160405180910390205414610e29576040517f08c379a0000000000000000000000000000000000000000000000000000000008152600401610e20906130e4565b60405180910390fd5b610e33600c61172d565b6000610e3f600c611743565b9050610e4b3382611751565b80600d84604051610e5c9190612fe3565b908152602001604051809103902081905550610e78818461176f565b80915050919050565b6000600b60009054906101000a900473ffffffffffffffffffffffffffffffffffffffff16905090565b606060018054610eba90613613565b80601f0160208091040260200160405190810160405280929190818152602001828054610ee690613613565b8015610f335780601f10610f0857610100808354040283529160200191610f33565b820191906000526020600020905b815481529060010190602001808311610f1657829003601f168201915b5050505050905090565b610f4f610f48611261565b83836117e3565b5050565b610f64610f5e611261565b83611322565b610fa3576040517f08c379a0000000000000000000000000000000000000000000000000000000008152600401610f9a90613344565b60405180910390fd5b610faf84848484611950565b50505050565b6060610fc0826119ac565b9050919050565b6000600560008473ffffffffffffffffffffffffffffffffffffffff1673ffffffffffffffffffffffffffffffffffffffff16815260200190815260200160002060008373ffffffffffffffffffffffffffffffffffffffff1673ffffffffffffffffffffffffffffffffffffffff16815260200190815260200160002060009054906101000a900460ff16905092915050565b6000600d8260405161106d9190612fe3565b9081526020016040518091039020549050919050565b61108b611261565b73ffffffffffffffffffffffffffffffffffffffff166110a9610e81565b73ffffffffffffffffffffffffffffffffffffffff16146110ff576040517f08c379a00000000000000000000000000000000000000000000000000000000081526004016110f6906132e4565b60405180910390fd5b600073ffffffffffffffffffffffffffffffffffffffff168173ffffffffffffffffffffffffffffffffffffffff16141561116f576040517f08c379a000000000000000000000000000000000000000000000000000000000815260040161116690613144565b60405180910390fd5b61117881611667565b50565b60007f780e9d63000000000000000000000000000000000000000000000000000000007bffffffffffffffffffffffffffffffffffffffffffffffffffffffff1916827bffffffffffffffffffffffffffffffffffffffffffffffffffffffff191614806111ee57506111ed82611afe565b5b9050919050565b60008073ffffffffffffffffffffffffffffffffffffffff166002600084815260200190815260200160002060009054906101000a900473ffffffffffffffffffffffffffffffffffffffff1673ffffffffffffffffffffffffffffffffffffffff1614159050919050565b600033905090565b816004600083815260200190815260200160002060006101000a81548173ffffffffffffffffffffffffffffffffffffffff021916908373ffffffffffffffffffffffffffffffffffffffff160217905550808273ffffffffffffffffffffffffffffffffffffffff166112dc83610a05565b73ffffffffffffffffffffffffffffffffffffffff167f8c5be1e5ebec7d5bd14f71427d1e84f3dd0314c0f7b2291e5b200ac8c7c3b92560405160405180910390a45050565b600061132d826111f5565b61136c576040517f08c379a0000000000000000000000000000000000000000000000000000000008152600401611363906131e4565b60405180910390fd5b600061137783610a05565b90508073ffffffffffffffffffffffffffffffffffffffff168473ffffffffffffffffffffffffffffffffffffffff1614806113b957506113b88185610fc7565b5b806113f757508373ffffffffffffffffffffffffffffffffffffffff166113df84610671565b73ffffffffffffffffffffffffffffffffffffffff16145b91505092915050565b8273ffffffffffffffffffffffffffffffffffffffff1661142082610a05565b73ffffffffffffffffffffffffffffffffffffffff1614611476576040517f08c379a000000000000000000000000000000000000000000000000000000000815260040161146d90613164565b60405180910390fd5b600073ffffffffffffffffffffffffffffffffffffffff168273ffffffffffffffffffffffffffffffffffffffff1614156114e6576040517f08c379a00000000000000000000000000000000000000000000000000000000081526004016114dd906131a4565b60405180910390fd5b6114f1838383611be0565b6114fc600082611269565b6001600360008573ffffffffffffffffffffffffffffffffffffffff1673ffffffffffffffffffffffffffffffffffffffff168152602001908152602001600020600082825461154c9190613529565b925050819055506001600360008473ffffffffffffffffffffffffffffffffffffffff1673ffffffffffffffffffffffffffffffffffffffff16815260200190815260200160002060008282546115a391906134a2565b92505081905550816002600083815260200190815260200160002060006101000a81548173ffffffffffffffffffffffffffffffffffffffff021916908373ffffffffffffffffffffffffffffffffffffffff160217905550808273ffffffffffffffffffffffffffffffffffffffff168473ffffffffffffffffffffffffffffffffffffffff167fddf252ad1be2c89b69c2b068fc378daa952ba7f163c4a11628f55a4df523b3ef60405160405180910390a4611662838383611bf0565b505050565b6000600b60009054906101000a900473ffffffffffffffffffffffffffffffffffffffff16905081600b60006101000a81548173ffffffffffffffffffffffffffffffffffffffff021916908373ffffffffffffffffffffffffffffffffffffffff1602179055508173ffffffffffffffffffffffffffffffffffffffff168173ffffffffffffffffffffffffffffffffffffffff167f8be0079c531659141344cd1fd0a4f28419497f9722a3daafe3b4186f6b6457e060405160405180910390a35050565b6001816000016000828254019250508190555050565b600081600001549050919050565b61176b828260405180602001604052806000815250611bf5565b5050565b611778826111f5565b6117b7576040517f08c379a00000000000000000000000000000000000000000000000000000000081526004016117ae90613264565b60405180910390fd5b80600a600084815260200190815260200160002090805190602001906117de929190612770565b505050565b8173ffffffffffffffffffffffffffffffffffffffff168373ffffffffffffffffffffffffffffffffffffffff161415611852576040517f08c379a0000000000000000000000000000000000000000000000000000000008152600401611849906131c4565b60405180910390fd5b80600560008573ffffffffffffffffffffffffffffffffffffffff1673ffffffffffffffffffffffffffffffffffffffff16815260200190815260200160002060008473ffffffffffffffffffffffffffffffffffffffff1673ffffffffffffffffffffffffffffffffffffffff16815260200190815260200160002060006101000a81548160ff0219169083151502179055508173ffffffffffffffffffffffffffffffffffffffff168373ffffffffffffffffffffffffffffffffffffffff167f17307eab39ab6107e8899845ad3d59bd9653f200f220920489ca2b5937696c318360405161194391906130a7565b60405180910390a3505050565b61195b848484611400565b61196784848484611c50565b6119a6576040517f08c379a000000000000000000000000000000000000000000000000000000000815260040161199d90613124565b60405180910390fd5b50505050565b60606119b7826111f5565b6119f6576040517f08c379a00000000000000000000000000000000000000000000000000000000081526004016119ed906132a4565b60405180910390fd5b6000600a60008481526020019081526020016000208054611a1690613613565b80601f0160208091040260200160405190810160405280929190818152602001828054611a4290613613565b8015611a8f5780601f10611a6457610100808354040283529160200191611a8f565b820191906000526020600020905b815481529060010190602001808311611a7257829003601f168201915b505050505090506000611aa0611de7565b9050600081511415611ab6578192505050611af9565b600082511115611aeb578082604051602001611ad3929190612ffa565b60405160208183030381529060405292505050611af9565b611af484611e24565b925050505b919050565b60007f80ac58cd000000000000000000000000000000000000000000000000000000007bffffffffffffffffffffffffffffffffffffffffffffffffffffffff1916827bffffffffffffffffffffffffffffffffffffffffffffffffffffffff19161480611bc957507f5b5e139f000000000000000000000000000000000000000000000000000000007bffffffffffffffffffffffffffffffffffffffffffffffffffffffff1916827bffffffffffffffffffffffffffffffffffffffffffffffffffffffff1916145b80611bd95750611bd882611ecb565b5b9050919050565b611beb838383611f35565b505050565b505050565b611bff8383612049565b611c0c6000848484611c50565b611c4b576040517f08c379a0000000000000000000000000000000000000000000000000000000008152600401611c4290613124565b60405180910390fd5b505050565b6000611c718473ffffffffffffffffffffffffffffffffffffffff16612223565b15611dda578373ffffffffffffffffffffffffffffffffffffffff1663150b7a02611c9a611261565b8786866040518563ffffffff1660e01b8152600401611cbc9493929190613039565b602060405180830381600087803b158015611cd657600080fd5b505af1925050508015611d0757506040513d601f19601f82011682018060405250810190611d049190612b1c565b60015b611d8a573d8060008114611d37576040519150601f19603f3d011682016040523d82523d6000602084013e611d3c565b606091505b50600081511415611d82576040517f08c379a0000000000000000000000000000000000000000000000000000000008152600401611d7990613124565b60405180910390fd5b805181602001fd5b63150b7a0260e01b7bffffffffffffffffffffffffffffffffffffffffffffffffffffffff1916817bffffffffffffffffffffffffffffffffffffffffffffffffffffffff191614915050611ddf565b600190505b949350505050565b60606040518060400160405280601581526020017f687474703a2f2f6c6f63616c686f73743a333030300000000000000000000000815250905090565b6060611e2f826111f5565b611e6e576040517f08c379a0000000000000000000000000000000000000000000000000000000008152600401611e6590613304565b60405180910390fd5b6000611e78611de7565b90506000815111611e985760405180602001604052806000815250611ec3565b80611ea284612246565b604051602001611eb3929190612ffa565b6040516020818303038152906040525b915050919050565b60007f01ffc9a7000000000000000000000000000000000000000000000000000000007bffffffffffffffffffffffffffffffffffffffffffffffffffffffff1916827bffffffffffffffffffffffffffffffffffffffffffffffffffffffff1916149050919050565b611f408383836123f3565b600073ffffffffffffffffffffffffffffffffffffffff168373ffffffffffffffffffffffffffffffffffffffff161415611f8357611f7e816123f8565b611fc2565b8173ffffffffffffffffffffffffffffffffffffffff168373ffffffffffffffffffffffffffffffffffffffff1614611fc157611fc08382612441565b5b5b600073ffffffffffffffffffffffffffffffffffffffff168273ffffffffffffffffffffffffffffffffffffffff16141561200557612000816125ae565b612044565b8273ffffffffffffffffffffffffffffffffffffffff168273ffffffffffffffffffffffffffffffffffffffff16146120435761204282826126f1565b5b5b505050565b600073ffffffffffffffffffffffffffffffffffffffff168273ffffffffffffffffffffffffffffffffffffffff1614156120b9576040517f08c379a00000000000000000000000000000000000000000000000000000000081526004016120b090613284565b60405180910390fd5b6120c2816111f5565b15612102576040517f08c379a00000000000000000000000000000000000000000000000000000000081526004016120f990613184565b60405180910390fd5b61210e60008383611be0565b6001600360008473ffffffffffffffffffffffffffffffffffffffff1673ffffffffffffffffffffffffffffffffffffffff168152602001908152602001600020600082825461215e91906134a2565b92505081905550816002600083815260200190815260200160002060006101000a81548173ffffffffffffffffffffffffffffffffffffffff021916908373ffffffffffffffffffffffffffffffffffffffff160217905550808273ffffffffffffffffffffffffffffffffffffffff16600073ffffffffffffffffffffffffffffffffffffffff167fddf252ad1be2c89b69c2b068fc378daa952ba7f163c4a11628f55a4df523b3ef60405160405180910390a461221f60008383611bf0565b5050565b6000808273ffffffffffffffffffffffffffffffffffffffff163b119050919050565b6060600082141561228e576040518060400160405280600181526020017f300000000000000000000000000000000000000000000000000000000000000081525090506123ee565b600082905060005b600082146122c05780806122a990613676565b915050600a826122b991906134f8565b9150612296565b60008167ffffffffffffffff811115612302577f4e487b7100000000000000000000000000000000000000000000000000000000600052604160045260246000fd5b6040519080825280601f01601f1916602001820160405280156123345781602001600182028036833780820191505090505b5090505b600085146123e75760018261234d9190613529565b9150600a8561235c91906136bf565b603061236891906134a2565b60f81b8183815181106123a4577f4e487b7100000000000000000000000000000000000000000000000000000000600052603260045260246000fd5b60200101907effffffffffffffffffffffffffffffffffffffffffffffffffffffffffffff1916908160001a905350600a856123e091906134f8565b9450612338565b8093505050505b919050565b505050565b6008805490506009600083815260200190815260200160002081905550600881908060018154018082558091505060019003906000526020600020016000909190919091505550565b6000600161244e84610ab7565b6124589190613529565b905060006007600084815260200190815260200160002054905081811461253d576000600660008673ffffffffffffffffffffffffffffffffffffffff1673ffffffffffffffffffffffffffffffffffffffff168152602001908152602001600020600084815260200190815260200160002054905080600660008773ffffffffffffffffffffffffffffffffffffffff1673ffffffffffffffffffffffffffffffffffffffff168152602001908152602001600020600084815260200190815260200160002081905550816007600083815260200190815260200160002081905550505b6007600084815260200190815260200160002060009055600660008573ffffffffffffffffffffffffffffffffffffffff1673ffffffffffffffffffffffffffffffffffffffff16815260200190815260200160002060008381526020019081526020016000206000905550505050565b600060016008805490506125c29190613529565b9050600060096000848152602001908152602001600020549050600060088381548110612618577f4e487b7100000000000000000000000000000000000000000000000000000000600052603260045260246000fd5b906000526020600020015490508060088381548110612660577f4e487b7100000000000000000000000000000000000000000000000000000000600052603260045260246000fd5b9060005260206000200181905550816009600083815260200190815260200160002081905550600960008581526020019081526020016000206000905560088054806126d5577f4e487b7100000000000000000000000000000000000000000000000000000000600052603160045260246000fd5b6001900381819060005260206000200160009055905550505050565b60006126fc83610ab7565b905081600660008573ffffffffffffffffffffffffffffffffffffffff1673ffffffffffffffffffffffffffffffffffffffff168152602001908152602001600020600083815260200190815260200160002081905550806007600084815260200190815260200160002081905550505050565b82805461277c90613613565b90600052602060002090601f01602090048101928261279e57600085556127e5565b82601f106127b757805160ff19168380011785556127e5565b828001600101855582156127e5579182015b828111156127e45782518255916020019190600101906127c9565b5b5090506127f291906127f6565b5090565b5b8082111561280f5760008160009055506001016127f7565b5090565b6000612826612821846133c4565b61339f565b90508281526020810184848401111561283e57600080fd5b6128498482856135d1565b509392505050565b600061286461285f846133f5565b61339f565b90508281526020810184848401111561287c57600080fd5b6128878482856135d1565b509392505050565b60008135905061289e81613d7a565b92915050565b6000813590506128b381613d91565b92915050565b6000813590506128c881613da8565b92915050565b6000815190506128dd81613da8565b92915050565b600082601f8301126128f457600080fd5b8135612904848260208601612813565b91505092915050565b600082601f83011261291e57600080fd5b813561292e848260208601612851565b91505092915050565b60008135905061294681613dbf565b92915050565b60006020828403121561295e57600080fd5b600061296c8482850161288f565b91505092915050565b6000806040838503121561298857600080fd5b60006129968582860161288f565b92505060206129a78582860161288f565b9150509250929050565b6000806000606084860312156129c657600080fd5b60006129d48682870161288f565b93505060206129e58682870161288f565b92505060406129f686828701612937565b9150509250925092565b60008060008060808587031215612a1657600080fd5b6000612a248782880161288f565b9450506020612a358782880161288f565b9350506040612a4687828801612937565b925050606085013567ffffffffffffffff811115612a6357600080fd5b612a6f878288016128e3565b91505092959194509250565b60008060408385031215612a8e57600080fd5b6000612a9c8582860161288f565b9250506020612aad858286016128a4565b9150509250929050565b60008060408385031215612aca57600080fd5b6000612ad88582860161288f565b9250506020612ae985828601612937565b9150509250929050565b600060208284031215612b0557600080fd5b6000612b13848285016128b9565b91505092915050565b600060208284031215612b2e57600080fd5b6000612b3c848285016128ce565b91505092915050565b600060208284031215612b5757600080fd5b600082013567ffffffffffffffff811115612b7157600080fd5b612b7d8482850161290d565b91505092915050565b600060208284031215612b9857600080fd5b6000612ba684828501612937565b91505092915050565b6000612bbb8383612fc5565b60208301905092915050565b612bd08161355d565b82525050565b6000612be182613436565b612beb8185613464565b9350612bf683613426565b8060005b83811015612c27578151612c0e8882612baf565b9750612c1983613457565b925050600181019050612bfa565b5085935050505092915050565b612c3d8161356f565b82525050565b6000612c4e82613441565b612c588185613475565b9350612c688185602086016135e0565b612c71816137ac565b840191505092915050565b6000612c878261344c565b612c918185613486565b9350612ca18185602086016135e0565b612caa816137ac565b840191505092915050565b6000612cc08261344c565b612cca8185613497565b9350612cda8185602086016135e0565b80840191505092915050565b6000612cf3601a83613486565b9150612cfe826137bd565b602082019050919050565b6000612d16602b83613486565b9150612d21826137e6565b604082019050919050565b6000612d39603283613486565b9150612d4482613835565b604082019050919050565b6000612d5c602683613486565b9150612d6782613884565b604082019050919050565b6000612d7f602583613486565b9150612d8a826138d3565b604082019050919050565b6000612da2601c83613486565b9150612dad82613922565b602082019050919050565b6000612dc5602483613486565b9150612dd08261394b565b604082019050919050565b6000612de8601983613486565b9150612df38261399a565b602082019050919050565b6000612e0b602c83613486565b9150612e16826139c3565b604082019050919050565b6000612e2e603883613486565b9150612e3982613a12565b604082019050919050565b6000612e51602a83613486565b9150612e5c82613a61565b604082019050919050565b6000612e74602983613486565b9150612e7f82613ab0565b604082019050919050565b6000612e97602e83613486565b9150612ea282613aff565b604082019050919050565b6000612eba602083613486565b9150612ec582613b4e565b602082019050919050565b6000612edd603183613486565b9150612ee882613b77565b604082019050919050565b6000612f00602c83613486565b9150612f0b82613bc6565b604082019050919050565b6000612f23602083613486565b9150612f2e82613c15565b602082019050919050565b6000612f46602f83613486565b9150612f5182613c3e565b604082019050919050565b6000612f69602183613486565b9150612f7482613c8d565b604082019050919050565b6000612f8c603183613486565b9150612f9782613cdc565b604082019050919050565b6000612faf602c83613486565b9150612fba82613d2b565b604082019050919050565b612fce816135c7565b82525050565b612fdd816135c7565b82525050565b6000612fef8284612cb5565b915081905092915050565b60006130068285612cb5565b91506130128284612cb5565b91508190509392505050565b60006020820190506130336000830184612bc7565b92915050565b600060808201905061304e6000830187612bc7565b61305b6020830186612bc7565b6130686040830185612fd4565b818103606083015261307a8184612c43565b905095945050505050565b6000602082019050818103600083015261309f8184612bd6565b905092915050565b60006020820190506130bc6000830184612c34565b92915050565b600060208201905081810360008301526130dc8184612c7c565b905092915050565b600060208201905081810360008301526130fd81612ce6565b9050919050565b6000602082019050818103600083015261311d81612d09565b9050919050565b6000602082019050818103600083015261313d81612d2c565b9050919050565b6000602082019050818103600083015261315d81612d4f565b9050919050565b6000602082019050818103600083015261317d81612d72565b9050919050565b6000602082019050818103600083015261319d81612d95565b9050919050565b600060208201905081810360008301526131bd81612db8565b9050919050565b600060208201905081810360008301526131dd81612ddb565b9050919050565b600060208201905081810360008301526131fd81612dfe565b9050919050565b6000602082019050818103600083015261321d81612e21565b9050919050565b6000602082019050818103600083015261323d81612e44565b9050919050565b6000602082019050818103600083015261325d81612e67565b9050919050565b6000602082019050818103600083015261327d81612e8a565b9050919050565b6000602082019050818103600083015261329d81612ead565b9050919050565b600060208201905081810360008301526132bd81612ed0565b9050919050565b600060208201905081810360008301526132dd81612ef3565b9050919050565b600060208201905081810360008301526132fd81612f16565b9050919050565b6000602082019050818103600083015261331d81612f39565b9050919050565b6000602082019050818103600083015261333d81612f5c565b9050919050565b6000602082019050818103600083015261335d81612f7f565b9050919050565b6000602082019050818103600083015261337d81612fa2565b9050919050565b60006020820190506133996000830184612fd4565b92915050565b60006133a96133ba565b90506133b58282613645565b919050565b6000604051905090565b600067ffffffffffffffff8211156133df576133de61377d565b5b6133e8826137ac565b9050602081019050919050565b600067ffffffffffffffff8211156134105761340f61377d565b5b613419826137ac565b9050602081019050919050565b6000819050602082019050919050565b600081519050919050565b600081519050919050565b600081519050919050565b6000602082019050919050565b600082825260208201905092915050565b600082825260208201905092915050565b600082825260208201905092915050565b600081905092915050565b60006134ad826135c7565b91506134b8836135c7565b9250827fffffffffffffffffffffffffffffffffffffffffffffffffffffffffffffffff038211156134ed576134ec6136f0565b5b828201905092915050565b6000613503826135c7565b915061350e836135c7565b92508261351e5761351d61371f565b5b828204905092915050565b6000613534826135c7565b915061353f836135c7565b925082821015613552576135516136f0565b5b828203905092915050565b6000613568826135a7565b9050919050565b60008115159050919050565b60007fffffffff0000000000000000000000000000000000000000000000000000000082169050919050565b600073ffffffffffffffffffffffffffffffffffffffff82169050919050565b6000819050919050565b82818337600083830152505050565b60005b838110156135fe5780820151818401526020810190506135e3565b8381111561360d576000848401525b50505050565b6000600282049050600182168061362b57607f821691505b6020821081141561363f5761363e61374e565b5b50919050565b61364e826137ac565b810181811067ffffffffffffffff8211171561366d5761366c61377d565b5b80604052505050565b6000613681826135c7565b91507fffffffffffffffffffffffffffffffffffffffffffffffffffffffffffffffff8214156136b4576136b36136f0565b5b600182019050919050565b60006136ca826135c7565b91506136d5836135c7565b9250826136e5576136e461371f565b5b828206905092915050565b7f4e487b7100000000000000000000000000000000000000000000000000000000600052601160045260246000fd5b7f4e487b7100000000000000000000000000000000000000000000000000000000600052601260045260246000fd5b7f4e487b7100000000000000000000000000000000000000000000000000000000600052602260045260246000fd5b7f4e487b7100000000000000000000000000000000000000000000000000000000600052604160045260246000fd5b6000601f19601f8301169050919050565b7f54686973206b657920697320616c7265616479206d696e746564000000000000600082015250565b7f455243373231456e756d657261626c653a206f776e657220696e646578206f7560008201527f74206f6620626f756e6473000000000000000000000000000000000000000000602082015250565b7f4552433732313a207472616e7366657220746f206e6f6e20455243373231526560008201527f63656976657220696d706c656d656e7465720000000000000000000000000000602082015250565b7f4f776e61626c653a206e6577206f776e657220697320746865207a65726f206160008201527f6464726573730000000000000000000000000000000000000000000000000000602082015250565b7f4552433732313a207472616e736665722066726f6d20696e636f72726563742060008201527f6f776e6572000000000000000000000000000000000000000000000000000000602082015250565b7f4552433732313a20746f6b656e20616c7265616479206d696e74656400000000600082015250565b7f4552433732313a207472616e7366657220746f20746865207a65726f2061646460008201527f7265737300000000000000000000000000000000000000000000000000000000602082015250565b7f4552433732313a20617070726f766520746f2063616c6c657200000000000000600082015250565b7f4552433732313a206f70657261746f7220717565727920666f72206e6f6e657860008201527f697374656e7420746f6b656e0000000000000000000000000000000000000000602082015250565b7f4552433732313a20617070726f76652063616c6c6572206973206e6f74206f7760008201527f6e6572206e6f7220617070726f76656420666f7220616c6c0000000000000000602082015250565b7f4552433732313a2062616c616e636520717565727920666f7220746865207a6560008201527f726f206164647265737300000000000000000000000000000000000000000000602082015250565b7f4552433732313a206f776e657220717565727920666f72206e6f6e657869737460008201527f656e7420746f6b656e0000000000000000000000000000000000000000000000602082015250565b7f45524337323155524953746f726167653a2055524920736574206f66206e6f6e60008201527f6578697374656e7420746f6b656e000000000000000000000000000000000000602082015250565b7f4552433732313a206d696e7420746f20746865207a65726f2061646472657373600082015250565b7f45524337323155524953746f726167653a2055524920717565727920666f722060008201527f6e6f6e6578697374656e7420746f6b656e000000000000000000000000000000602082015250565b7f4552433732313a20617070726f76656420717565727920666f72206e6f6e657860008201527f697374656e7420746f6b656e0000000000000000000000000000000000000000602082015250565b7f4f776e61626c653a2063616c6c6572206973206e6f7420746865206f776e6572600082015250565b7f4552433732314d657461646174613a2055524920717565727920666f72206e6f60008201527f6e6578697374656e7420746f6b656e0000000000000000000000000000000000602082015250565b7f4552433732313a20617070726f76616c20746f2063757272656e74206f776e6560008201527f7200000000000000000000000000000000000000000000000000000000000000602082015250565b7f4552433732313a207472616e736665722063616c6c6572206973206e6f74206f60008201527f776e6572206e6f7220617070726f766564000000000000000000000000000000602082015250565b7f455243373231456e756d657261626c653a20676c6f62616c20696e646578206f60008201527f7574206f6620626f756e64730000000000000000000000000000000000000000602082015250565b613d838161355d565b8114613d8e57600080fd5b50565b613d9a8161356f565b8114613da557600080fd5b50565b613db18161357b565b8114613dbc57600080fd5b50565b613dc8816135c7565b8114613dd357600080fd5b5056fea2646970667358221220ca0f3d9055794c692f51e230150985eb9ee94444d7b0b206b4b3278c0ae6c20a64736f6c63430008010033",
  "linkReferences": {},
  "deployedLinkReferences": {}
}